:100000000C942A000C9447000C9447000C94470071
:100010000C9447000C9447000C941A130C9447005E
:100020000C9447000C9447000C9447000C94470034
:100030000C9447000C9447000C9447000C94470024
:100040000C9447000C9447000C9447000C94470014
:100050000C94470011241FBECFE5D8E0DEBFCDBF12
:1000600011E0A0E6B0E0ECE4F4E302C005900D92EC
:10007000AC38B107D9F711E0ACE8B1E001C01D928E
:10008000A439B107E1F70E9464170C94241A0C9468
:100090000000EF92FF920F931F937B018C0120E0F1
:1000A00030E040E05FE40E94F50388238CF0C80153
:1000B000B70120E030E040E05FE40E94C1010E940F
:1000C00055049B01AC01205030404040504806C0D0
:1000D000C801B7010E9455049B01AC01B901CA01D6
:1000E0001F910F91FF90EF900895A0E0B0E0EBE733
:1000F000F0E00C942C19DC012B01FA019C91923058
:1001000008F439C1EB018881823008F433C194309E
:1001100069F4843009F02FC111969C91119789815F
:10012000981709F428C1A3E8B0E025C1843009F488
:1001300021C18230A9F4923009F01DC19A01AD01AC
:1001400088E0EA010990AE01E90109929E0181501F
:10015000C1F7E201898111969C918923818308C1AD
:10016000923009F407C112962D903C901397EB0141
:100170008A819B811496AD90BD90CD90DC901797AD
:10018000EC80FD800E811F819101281B390BB90184
:1001900037FF04C066277727621B730B6032710537
:1001A0000CF061C0121613066CF537014801062EDB
:1001B00004C096948794779467940A94D2F721E0C8
:1001C00030E040E050E004C0220F331F441F551FB1
:1001D0006A95D2F721503040404050402E213F21B7
:1001E00040235123211531054105510521F021E01E
:1001F00030E040E050E079018A01E628F72808293C
:1002000019293CC0232BD1F1260E371E350146019A
:10021000062E04C096948794779467940A94D2F734
:1002200021E030E040E050E004C0220F331F441FC3
:10023000551F6A95D2F721503040404050402A2146
:100240003B214C215D21211531054105510521F04E
:1002500021E030E040E050E059016A01A628B728CB
:10026000C828D9280BC0821593052CF01C01AA249C
:10027000BB24650103C0EE24FF24870111969C91E5
:10028000D20111968C91981709F445C0992339F041
:10029000A80197012A193B094C095D0906C0A6016E
:1002A00095012E193F09400B510B57FD08C01182D3
:1002B0003382228224833583468357831DC081E0A5
:1002C00081833382228288279927DC01821B930B4A
:1002D000A40BB50B84839583A683B7830DC0220F2F
:1002E000331F441F551F24833583468357838281E0
:1002F000938101979383828324813581468157813D
:10030000DA01C9010197A109B1098F5F9F4FAF4F72
:10031000BF4328F30BC0918333822282EA0CFB1C7B
:100320000C1D1D1DE482F5820683178383E0808304
:10033000248135814681578157FF1AC0C901AA27F8
:1003400097FDA095BA2F81709070A070B0705695EF
:10035000479537952795822B932BA42BB52B848318
:100360009583A683B7838281938101969383828349
:10037000DF0101C0D201CD01CDB7DEB7E2E10C94BF
:100380004819A0E2B0E0E7ECF1E00C943819698379
:100390007A838B839C832D833E834F835887E9E048
:1003A000EE2EF12CEC0EFD1ECE010196B7010E943F
:1003B00046068E010F5E1F4FCE010596B8010E94C2
:1003C00046068A8991E089278A8BC701B801AE0168
:1003D000475E5F4F0E9475000E947105A096E6E09F
:1003E0000C945419A0E2B0E0E8EFF1E00C94381955
:1003F00069837A838B839C832D833E834F835887C5
:10040000F9E0EF2EF12CEC0EFD1ECE010196B701A6
:100410000E9446068E010F5E1F4FCE010596B80161
:100420000E944606C701B801AE01475E5F4F0E94B9
:1004300075000E947105A096E6E00C945419A0E2A4
:10044000B0E0E5E2F2E00C942C1969837A838B83A7
:100450009C832D833E834F835887CE010196BE0136
:10046000675F7F4F0E944606CE010596BE016F5E14
:100470007F4F0E9446069985923088F089898230A4
:10048000C8F0943019F4823051F404C0843029F457
:10049000923081F483E890E0C6C0923049F420E0C5
:1004A0009A858A89981321E02A87CE010996BBC0D4
:1004B000823049F420E09A858A89981321E02A8BBA
:1004C000CE014196B0C02D843E844F8458886D88FB
:1004D0007E888F88988CEE24FF248701AA24BB2471
:1004E000650140E050E060E070E0E0E0F0E0C10174
:1004F00081709070892BE9F0E60CF71C081D191D1E
:100500009A01AB012A0D3B1D4C1D5D1D80E090E062
:10051000A0E0B0E0E614F7040805190520F481E036
:1005200090E0A0E0B0E0BA01A901480F591F6A1F8E
:100530007B1FAA0CBB1CCC1CDD1C97FE08C081E0F5
:1005400090E0A0E0B0E0A82AB92ACA2ADB2A3196B6
:10055000E032F10549F0660C771C881C991C569412
:10056000479437942794C3CFFA85EA892B893C892D
:100570008B859C85280F391F2E5F3F4F17C0CA01FE
:1005800081709070892B61F016950795F794E79428
:1005900080E090E0A0E0B0E8E82AF92A0A2B1B2BC3
:1005A00076956795579547952F5F3F4F77FDE7CF36
:1005B0000CC0440F551F661F771F17FD4160EE0CDE
:1005C000FF1C001F111F21503040403090E05907A0
:1005D00090E0690790E4790760F32B8F3C8FDB0193
:1005E000CA018F779070A070B07080349105A1051A
:1005F000B10561F447FD0AC0E114F10401051105DC
:1006000029F0405C5F4F6F4F7F4F40781A8EFE1786
:1006100011F081E08A8F4D8F5E8F6F8F78A383E01A
:10062000898FCE0149960E947105A096E2E10C9453
:100630004819A8E1B0E0EFE1F3E00C9434196983C4
:100640007A838B839C832D833E834F835887B9E0C5
:10065000EB2EF12CEC0EFD1ECE010196B7010E948F
:1006600046068E010F5E1F4FCE010596B8010E940F
:1006700046062985223008F47EC03989323010F4CC
:10068000B8017CC08A859A8989278A87243011F02D
:10069000223031F4231709F06EC063E870E06EC0B9
:1006A000343039F41D861E861F86188A1C861B86E8
:1006B00004C0323021F484E08987B7015FC02B8504
:1006C0003C858B899C89281B390B3C872B87ED84C3
:1006D000FE840F851889AD88BE88CF88D88CEA142F
:1006E000FB040C051D0540F4EE0CFF1C001F111F40
:1006F000215030403C872B8720E030E040E050E044
:1007000080E090E0A0E0B0E460E070E0EA14FB0478
:100710000C051D0540F0282B392B4A2B5B2BEA18C2
:10072000FB080C091D09B695A79597958795EE0CC2
:10073000FF1C001F111F6F5F7F4F6F31710531F775
:10074000DA01C9018F779070A070B0708034910584
:10075000A105B10561F427FD0AC0E114F10401050A
:10076000110529F0205C3F4F4F4F5F4F20782D87B8
:100770003E874F87588BBE01675F7F4FCB010E943A
:1007800071056896EAE00C945019A8E1B0E0EBEC32
:10079000F3E00C94381969837A838B839C832D83CF
:1007A0003E834F83588789E0E82EF12CEC0EFD1E26
:1007B000CE010196B7010E9446068E010F5E1F4FC3
:1007C000CE010596B8010E9446068985823040F028
:1007D0008989823028F0C701B8010E94BE0601C095
:1007E0008FEF6896E6E00C945419A8E1B0E0EBEFC7
:1007F000F3E00C94381969837A838B839C832D836F
:100800003E834F83588789E0E82EF12CEC0EFD1EC5
:10081000CE010196B7010E9446068E010F5E1F4F62
:10082000CE010596B8010E9446068985823040F0C7
:100830008989823028F0C701B8010E94BE0601C034
:100840008FEF6896E6E00C945419A8E1B0E0EBE273
:10085000F4E00C94381969837A838B839C832D830D
:100860003E834F83588789E0E82EF12CEC0EFD1E65
:10087000CE010196B7010E9446068E010F5E1F4F02
:10088000CE010596B8010E9446068985823040F067
:100890008989823028F0C701B8010E94BE0601C0D4
:1008A00081E06896E6E00C945419ACE0B0E0EBE52A
:1008B000F4E00C943C1969837A838B839C83CE018A
:1008C0000196BE016B5F7F4F0E9446068D8182308C
:1008D00061F1823050F1843021F48E81882351F10E
:1008E0002EC02F81388537FD20C06E812F31310514
:1008F0001CF06623F9F023C08EE190E0821B930B7D
:1009000029853A854B855C8504C056954795379572
:1009100027958A95D2F76623B1F05095409530958A
:1009200021953F4F4F4F5F4F0EC020E030E040E039
:1009300050E009C02FEF3FEF4FEF5FE704C020E02A
:1009400030E040E050E8B901CA012C96E2E00C9496
:100950005819A8E0B0E0EFEAF4E00C9434197B01F8
:100960008C01611571058105910519F482E0898377
:1009700060C083E089838EE1C82ED12CDC82CB82DB
:10098000ED82FE820F831887C801B7010E942205FD
:10099000FC013197F7FF3BC0222733272E1B3F0B6B
:1009A00057016801022E04C0D694C794B794A79447
:1009B0000A94D2F740E050E060E070E081E090E01F
:1009C000A0E0B0E004C0880F991FAA1FBB1F2A95A2
:1009D000D2F70197A109B1098E219F21A023B1234C
:1009E0000097A105B10521F041E050E060E070E022
:1009F0004A295B296C297D294D835E836F83788723
:100A00008EE190E08E1B9F0B9C838B8312C03097EE
:100A100081F00E2E04C0EE0CFF1C001F111F0A9463
:100A2000D2F7ED82FE820F831887CE1ADF0ADC82AE
:100A3000CB821A82CE0101960E9471052896EAE0C7
:100A40000C945019EF92FF920F931F937B018C012E
:100A500080E0E81680E0F80681E0080780E01807EB
:100A600088F48FEFE816F1040105110531F028F044
:100A700088E090E0A0E0B0E017C080E090E0A0E067
:100A8000B0E012C080E0E81680E0F80680E00807D9
:100A900081E0180728F088E190E0A0E0B0E004C011
:100AA00080E190E0A0E0B0E020E230E040E050E003
:100AB000281B390B4A0B5B0B04C016950795F7945E
:100AC000E7948A95D2F7F701E557FF4F8081281BFD
:100AD000310941095109C9011F910F91FF90EF9010
:100AE0000895DF92EF92FF920F931F93FC01E48031
:100AF000F58006811781D1808081823048F480E0C2
:100B000090E0A0E1B0E0E82AF92A0A2B1B2BA5C04F
:100B1000843009F49FC0823021F4EE24FF24870141
:100B200005C0E114F1040105110519F4E0E0F0E05D
:100B300096C0628173819FEF623879070CF05BC0C9
:100B400022E83FEF261B370B2A3131052CF020E03D
:100B500030E040E050E02AC0B801A701022E04C0F6
:100B600076956795579547950A94D2F781E090E07E
:100B7000A0E0B0E004C0880F991FAA1FBB1F2A95F0
:100B8000D2F70197A109B1098E219F21A023B1239A
:100B90000097A105B10521F081E090E0A0E0B0E070
:100BA0009A01AB01282B392B4A2B5B2BDA01C901A7
:100BB0008F779070A070B07080349105A105B10559
:100BC00039F427FF09C0205C3F4F4F4F5F4F04C0EF
:100BD000215C3F4F4F4F5F4FE0E0F0E02030A0E05E
:100BE0003A07A0E04A07A0E45A0710F0E1E0F0E07D
:100BF00079018A0127C06038710564F5FB01E1586D
:100C0000FF4FD801C7018F779070A070B07080340B
:100C10009105A105B10539F4E7FE0DC080E490E02F
:100C2000A0E0B0E004C08FE390E0A0E0B0E0E80E08
:100C3000F91E0A1F1B1F17FF05C016950795F7948D
:100C4000E794319687E016950795F794E7948A958F
:100C5000D1F705C0EE24FF248701EFEFF0E06E2FFF
:100C6000679566276795902F9F77D794DD24D79453
:100C70008E2F8695492F462B582F5D29B701CA0123
:100C80001F910F91FF90EF90DF900895FC01DB0121
:100C9000408151812281622F6F7770E0221F2227CD
:100CA000221F9381892F880F822B282F30E0991FD4
:100CB0009927991F11969C93119721153105A9F534
:100CC000411551056105710511F482E037C082E8D4
:100CD0009FEF13969C938E9312979A01AB0167E056
:100CE000220F331F441F551F6A95D1F783E08C9361
:100CF0000DC0220F331F441F551F12968D919C91DA
:100D00001397019713969C938E931297203080E04F
:100D1000380780E0480780E4580758F314962D936D
:100D20003D934D935C93179708952F3F310579F4C8
:100D3000411551056105710519F484E08C930895FE
:100D400064FF03C081E08C9312C01C9210C02F5727
:100D5000304013963C932E93129783E08C9387E058
:100D6000440F551F661F771F8A95D1F7706414963C
:100D70004D935D936D937C93179708951F93DC01BA
:100D8000FB019C91923008F447C08081823008F4C6
:100D900043C0943051F411961C91843099F58181AF
:100DA000682F70E0611B71093FC0843021F09230E0
:100DB00031F48230B9F18181882389F12DC01196F7
:100DC0001C9111978230F1F081811817D9F4129695
:100DD0002D913C911397828193818217930794F010
:100DE00028173907BCF014968D919D910D90BC91F8
:100DF000A02D2481358146815781281739074A075C
:100E00005B0718F4112341F00AC082179307A40767
:100E1000B50740F4112319F061E070E005C06FEFF1
:100E20007FEF02C060E070E0CB011F910895DF9377
:100E3000CF9300D0CDB7DEB782E0898381E08A838B
:100E4000CE0101960E944D138CE598E00E94961306
:100E500083E067E041E00E94FD1383E066E040E04C
:100E60000E94FD130F900F90CF91DF910895DF93B3
:100E7000CF93CDB7DEB768970FB6F894DEBF0FBE3D
:100E8000CDBF83E067E041E00E94E81480E090E09D
:100E9000A0E2B1E48D8B9E8BAF8BB88F6D897E897C
:100EA0008F89988D2BEA3AEA4AEA50E40E941F02A1
:100EB000DC01CB01898B9A8BAB8BBC8B69897A89DE
:100EC0008B899C8920E030E040E85FE30E942504A4
:100ED00088231CF481E0888B91C069897A898B8989
:100EE0009C8920E030E04FE753E40E94C5031816C8
:100EF0000CF07BC06D897E898F89988D20E030E071
:100F00004AE754E40E941903DC01CB018C879D87DA
:100F1000AE87BF876C857D858E859F8520E030E01C
:100F20004AE755E40E941F02DC01CB0188879987BC
:100F3000AA87BB87688579858A859B8520E030E014
:100F400040E85FE30E94250488232CF481E090E0D0
:100F50009F838E833FC0688579858A859B8520E045
:100F60003FEF4FE757E40E94C50318164CF56C8518
:100F70007D858E859F8520E030E040E251E40E942F
:100F80001F02DC01CB01BC01CD010E944900DC0144
:100F9000CB019F838E830FC080E991E09D838C837A
:100FA0008C819D810197F1F79D838C838E819F8138
:100FB00001979F838E838E819F81009769F724C05C
:100FC000688579858A859B850E944900DC01CB0173
:100FD0009F838E838E819F819B838A838A819B815D
:100FE0000197F1F79B838A830FC069897A898B897E
:100FF0009C890E944900DC01CB01888B8889898308
:1010000089818A95F1F7898383E067E040E00E9457
:10101000E81468960FB6F894DEBF0FBECDBFCF912F
:10102000DF910895DF93CF9300D000D0CDB7DEB726
:101030000E943707809190018230E1F720918E0164
:1010400030918F0180918C0190918D01A901481BF5
:10105000590BCA019C838B838B819C81CC01A0E0BE
:10106000B0E0BC01CD010E94A904DC01CB01BC01B0
:10107000CD0123E333E34BEE52E40E941903DC017C
:10108000CB01BC01CD010E948419DC01CB01BC0164
:10109000CD010E944900DC01CB019A838983109223
:1010A00090010E94D21389819A810F900F900F9026
:1010B0000F90CF91DF910895DF93CF93CDB7DEB737
:1010C00080919001882369F40E94C71390938D0149
:1010D00080938C0180E00E94A81381E080939001AE
:1010E00010C080919001813061F40E94C7139093E9
:1010F0008F0180938E0181E00E94A81382E080938B
:101100009001CF91DF910895DF93CF93CDB7DEB7F4
:1011100082E060E041E00E94FD1382E061E041E096
:101120000E94FD1382E062E041E00E94FD1380E036
:101130000E94B20881E00E94B20882E00E94B208D8
:10114000CF91DF910895DF93CF930F92CDB7DEB7A4
:10115000898382E0698141E00E94E8140F90CF9179
:10116000DF910895DF93CF930F92CDB7DEB78983D8
:1011700082E0698140E00E94E8140F90CF91DF91F6
:101180000895DF93CF93CDB7DEB72E970FB6F894BF
:10119000DEBF0FBECDBF80E061E041E00E94FD13E5
:1011A00080E062E041E00E94FD1380E090E0A0EA70
:1011B000B1E48B879C87AD87BE876B857C858D85E9
:1011C0009E8520E030E04AE755E40E941F02DC01E2
:1011D000CB018F839887A987BA876F8178858985A6
:1011E0009A8520E030E040E85FE30E9425048823F0
:1011F0002CF481E090E09E838D833FC06F817885E1
:1012000089859A8520E03FEF4FE757E40E94C503A8
:1012100018164CF56B857C858D859E8520E030E029
:1012200040E251E40E941F02DC01CB01BC01CD0170
:101230000E944900DC01CB019E838D830FC080E9B1
:1012400091E09C838B838B819C810197F1F79C8338
:101250008B838D819E8101979E838D838D819E815D
:10126000009769F714C06F81788589859A850E94F7
:101270004900DC01CB019E838D838D819E819A8301
:10128000898389819A810197F1F79A83898380E024
:1012900063E041E00E94FD1380E064E041E00E94D1
:1012A000FD1380E065E041E00E94FD1380E066E010
:1012B00041E00E94FD1383E30E94730982E30E94D0
:1012C000730988E20E9473098CE00E94730981E02F
:1012D0000E9473092E960FB6F894DEBF0FBECDBFE5
:1012E000CF91DF9108950F931F93DF93CF93CDB7E5
:1012F000DEB7C356D0400FB6F894DEBF0FBECDBFE9
:10130000FE01ED59FF4F808380E061E040E00E94E4
:10131000E814FE01E15AFF4F80E090E0A0E8BFE34F
:1013200080839183A283B3838E01055A1F4FFE01F0
:10133000E15AFF4F608171818281938120E030E02A
:101340004AE755E40E941F02DC01CB01F8018083CB
:101350009183A283B383FE01E55AFF4F60817181BF
:101360008281938120E030E040E85FE30E94250421
:10137000882344F4FE01E75AFF4F81E090E0918317
:10138000808364C0FE01E55AFF4F608171818281D4
:10139000938120E03FEF4FE757E40E94C503181602
:1013A0000CF043C0FE01E15AFF4F608171818281E0
:1013B000938120E030E040E251E40E941F02DC0112
:1013C000CB018E01075A1F4FBC01CD010E9449007D
:1013D000DC01CB01F801918380831FC0FE01E95A33
:1013E000FF4F80E991E091838083FE01E95AFF4F2E
:1013F000808191810197F1F7FE01E95AFF4F9183B6
:101400008083DE01A75ABF4FFE01E75AFF4F80815C
:101410009181019711969C938E93FE01E75AFF4F9D
:10142000808191810097D1F627C08E01075A1F4F06
:10143000FE01E55AFF4F60817181828193810E9494
:101440004900DC01CB01F80191838083DE01AB5AB6
:10145000BF4FFE01E75AFF4F808191818D939C938E
:10146000FE01EB5AFF4F808191810197F1F7FE0158
:10147000EB5AFF4F9183808380E062E041E00E945D
:10148000E814FE01EF5AFF4F80E090E0A0E8BFE3D0
:1014900080839183A283B3838E01035B1F4FFE0180
:1014A000EF5AFF4F608171818281938120E030E0AB
:1014B0004AE755E40E941F02DC01CB01F80180835A
:1014C0009183A283B383FE01E35BFF4F608171814F
:1014D0008281938120E030E040E85FE30E942504B0
:1014E000882344F4FE01E55BFF4F81E090E09183A7
:1014F000808364C0FE01E35BFF4F60817181828164
:10150000938120E03FEF4FE757E40E94C503181690
:101510000CF043C0FE01EF5AFF4F60817181828160
:10152000938120E030E040E251E40E941F02DC01A0
:10153000CB018E01055B1F4FBC01CD010E9449000C
:10154000DC01CB01F801918380831FC0FE01E75BC2
:10155000FF4F80E991E091838083FE01E75BFF4FBD
:10156000808191810197F1F7FE01E75BFF4F918345
:101570008083DE01A55BBF4FFE01E55BFF4F8081ED
:101580009181019711969C938E93FE01E55BFF4F2D
:10159000808191810097D1F627C08E01055B1F4F96
:1015A000FE01E35BFF4F60817181828193810E9424
:1015B0004900DC01CB01F80191838083DE01A95B46
:1015C000BF4FFE01E55BFF4F808191818D939C931E
:1015D000FE01E95BFF4F808191810197F1F7FE01E8
:1015E000E95BFF4F91838083FE01ED59FF4F8081BE
:1015F000882F90E080719070959587959595879547
:101600009595879595958795982F80E063E0492F6C
:101610000E94E814FE01ED59FF4F8081882F90E071
:1016200080729070959587959595879595958795F6
:101630009595879595958795982F80E064E0492F3B
:101640000E94E814FE01ED59FF4F8081882F90E041
:1016500080749070082E892F000C881F990B000C45
:10166000881F991F982F80E065E0492F0E94E81499
:10167000FE01ED59FF4F8081982F991F9927991FDF
:1016800080E066E0492F0E94E814FE01ED5BFF4F09
:1016900080E090E0A0E8BFE380839183A283B383DE
:1016A0008E01015C1F4FFE01ED5BFF4F6081718178
:1016B0008281938120E030E04AE755E40E941F02D6
:1016C000DC01CB01F80180839183A283B383FE0107
:1016D000FF96608171818281938120E030E040E853
:1016E0005FE30E94250488232CF481E090E09EAF04
:1016F0008DAF46C0FE01FF9660817181828193812A
:1017000020E03FEF4FE757E40E94C503181664F549
:10171000FE01ED5BFF4F608171818281938120E04A
:1017200030E040E251E40E941F02DC01CB01BC0129
:10173000CD010E944900DC01CB019EAF8DAF0FC0EF
:1017400080E991E09CAF8BAF8BAD9CAD0197F1F739
:101750009CAF8BAF8DAD9EAD01979EAF8DAF8DAD24
:101760009EAD009769F716C0FE01FF9660817181FA
:10177000828193810E944900DC01CB019EAF8DAF35
:101780008DAD9EAD9AAF89AF89AD9AAD0197F1F756
:101790009AAF89AF80E062E040E00E94E81480E008
:1017A00090E0A0E8BFE38DAB9EABAFABB8AF6DA947
:1017B0007EA98FA998AD20E030E04AE755E40E9469
:1017C0001F02DC01CB0189AB9AABABABBCAB69A907
:1017D0007AA98BA99CA920E030E040E85FE30E9451
:1017E000250488232CF481E090E098AB8FA73FC0BC
:1017F00069A97AA98BA99CA920E03FEF4FE757E49C
:101800000E94C50318164CF56DA97EA98FA998AD45
:1018100020E030E040E251E40E941F02DC01CB01F5
:10182000BC01CD010E944900DC01CB0198AB8FA720
:101830000FC080E991E09EA78DA78DA59EA5019779
:10184000F1F79EA78DA78FA598A9019798AB8FA7B1
:101850008FA598A9009769F714C069A97AA98BA9DF
:101860009CA90E944900DC01CB0198AB8FA78FA5F2
:1018700098A99CA78BA78BA59CA50197F1F79CA77E
:101880008BA780E062E041E00E94E81480E090E0F5
:10189000A0E8BFE38FA398A7A9A7BAA76FA178A5CF
:1018A00089A59AA520E030E04AE755E40E941F028E
:1018B000DC01CB018BA39CA3ADA3BEA36BA17CA138
:1018C0008DA19EA120E030E040E85FE30E94250466
:1018D00088232CF481E090E09AA389A33FC06BA1F8
:1018E0007CA18DA19EA120E03FEF4FE757E40E942D
:1018F000C50318164CF56FA178A589A59AA520E017
:1019000030E040E251E40E941F02DC01CB01BC0147
:10191000CD010E944900DC01CB019AA389A30FC02D
:1019200080E991E098A38F8F8F8D98A10197F1F7AF
:1019300098A38F8F89A19AA101979AA389A389A1BE
:101940009AA1009769F714C06BA17CA18DA19EA1FB
:101950000E944900DC01CB019AA389A389A19AA125
:101960009E8F8D8F8D8D9E8D0197F1F79E8F8D8F20
:10197000FE01ED59FF4F8081982F917080E063E068
:10198000492F0E94E814FE01ED59FF4F8081882FF6
:1019900090E08270907095958795982F80E064E034
:1019A000492F0E94E814FE01ED59FF4F8081882FD6
:1019B00090E0847090709595879595958795982F70
:1019C00080E065E0492F0E94E814FE01ED59FF4FC9
:1019D0008081882F90E08870907095958795959577
:1019E000879595958795982F80E066E0492F0E940E
:1019F000E81480E090E0A0E8BFE3898F9A8FAB8F76
:101A0000BC8F698D7A8D8B8D9C8D20E030E04AE70C
:101A100055E40E941F02DC01CB018D8B9E8BAF8BA6
:101A2000B88F6D897E898F89988D20E030E040E8FD
:101A30005FE30E94250488232CF481E090E09C8BD6
:101A40008B8B3FC06D897E898F89988D20E03FEF19
:101A50004FE757E40E94C50318164CF5698D7A8D3F
:101A60008B8D9C8D20E030E040E251E40E941F020B
:101A7000DC01CB01BC01CD010E944900DC01CB019E
:101A80009C8B8B8B0FC080E991E09A8B898B898925
:101A90009A890197F1F79A8B898B8B899C89019799
:101AA0009C8B8B8B8B899C89009769F714C06D89FF
:101AB0007E898F89988D0E944900DC01CB019C8B27
:101AC0008B8B8B899C89988B8F878F8598890197C1
:101AD000F1F7988B8F8780E062E040E00E94E81485
:101AE00080E090E0A0E8BFE38B879C87AD87BE874E
:101AF0006B857C858D859E8520E030E04AE755E446
:101B00000E941F02DC01CB018F839887A987BA87C7
:101B10006F81788589859A8520E030E040E85FE331
:101B20000E94250488232CF481E090E09E838D831D
:101B30003FC06F81788589859A8520E03FEF4FE728
:101B400057E40E94C50318164CF56B857C858D857E
:101B50009E8520E030E040E251E40E941F02DC015B
:101B6000CB01BC01CD010E944900DC01CB019E8369
:101B70008D830FC080E991E09C838B838B819C8156
:101B80000197F1F79C838B838D819E8101979E83C2
:101B90008D838D819E81009769F714C06F81788550
:101BA00089859A850E944900DC01CB019E838D8343
:101BB0008D819E819A83898389819A810197F1F72A
:101BC0009A838983CD59DF4F0FB6F894DEBF0FBEDD
:101BD000CDBFCF91DF911F910F9108950F931F9368
:101BE000DF93CF93CDB7DEB7C356D0400FB6F8948E
:101BF000DEBF0FBECDBFFE01ED59FF4F808380E0F9
:101C000061E041E00E94E814FE01E15AFF4F80E0EC
:101C100090E0A0E8BFE380839183A283B3838E0129
:101C2000055A1F4FFE01E15AFF4F60817181828189
:101C3000938120E030E04AE755E40E941F02DC0176
:101C4000CB01F80180839183A283B383FE01E55A1F
:101C5000FF4F608171818281938120E030E040E814
:101C60005FE30E942504882344F4FE01E75AFF4FF6
:101C700081E090E09183808364C0FE01E55AFF4FCC
:101C8000608171818281938120E03FEF4FE757E4CB
:101C90000E94C50318160CF043C0FE01E15AFF4F25
:101CA000608171818281938120E030E040E251E4E3
:101CB0000E941F02DC01CB018E01075A1F4FBC019D
:101CC000CD010E944900DC01CB01F80191838083A2
:101CD0001FC0FE01E95AFF4F80E991E091838083A4
:101CE000FE01E95AFF4F808191810197F1F7FE01D2
:101CF000E95AFF4F91838083DE01A75ABF4FFE014F
:101D0000E75AFF4F80819181019711969C938E93A2
:101D1000FE01E75AFF4F808191810097D1F627C0DD
:101D20008E01075A1F4FFE01E55AFF4F60817181F6
:101D3000828193810E944900DC01CB01F8019183EB
:101D40008083DE01AB5ABF4FFE01E75AFF4F80810F
:101D500091818D939C93FE01EB5AFF4F808191817D
:101D60000197F1F7FE01EB5AFF4F9183808380E0EA
:101D700062E041E00E94E814FE01EF5AFF4F80E06C
:101D800090E0A0E8BFE380839183A283B3838E01B8
:101D9000035B1F4FFE01EF5AFF4F6081718182810B
:101DA000938120E030E04AE755E40E941F02DC0105
:101DB000CB01F80180839183A283B383FE01E35BAF
:101DC000FF4F608171818281938120E030E040E8A3
:101DD0005FE30E942504882344F4FE01E55BFF4F86
:101DE00081E090E09183808364C0FE01E35BFF4F5C
:101DF000608171818281938120E03FEF4FE757E45A
:101E00000E94C50318160CF043C0FE01EF5AFF4FA5
:101E1000608171818281938120E030E040E251E471
:101E20000E941F02DC01CB018E01055B1F4FBC012C
:101E3000CD010E944900DC01CB01F8019183808330
:101E40001FC0FE01E75BFF4F80E991E09183808333
:101E5000FE01E75BFF4F808191810197F1F7FE0161
:101E6000E75BFF4F91838083DE01A55BBF4FFE01DF
:101E7000E55BFF4F80819181019711969C938E9332
:101E8000FE01E55BFF4F808191810097D1F627C06D
:101E90008E01055B1F4FFE01E35BFF4F6081718187
:101EA000828193810E944900DC01CB01F80191837A
:101EB0008083DE01A95BBF4FFE01E55BFF4F8081A0
:101EC00091818D939C93FE01E95BFF4F808191810D
:101ED0000197F1F7FE01E95BFF4F91838083FE01DB
:101EE000ED59FF4F8081882F90E08071907095951B
:101EF0008795959587959595879595958795982F2D
:101F000080E063E0492F0E94E814FE01ED59FF4F85
:101F10008081882F90E08072907095958795959537
:101F20008795959587959595879595958795982FFC
:101F300080E064E0492F0E94E814FE01ED59FF4F54
:101F40008081882F90E080749070082E892F000C7B
:101F5000881F990B000C881F991F982F80E065E05F
:101F6000492F0E94E814FE01ED59FF4F8081982F00
:101F7000991F9927991F80E066E0492F0E94E81475
:101F8000FE01ED5BFF4F80E090E0A0E8BFE38083BF
:101F90009183A283B3838E01015C1F4FFE01ED5B31
:101FA000FF4F608171818281938120E030E04AE7B8
:101FB00055E40E941F02DC01CB01F801808391836C
:101FC000A283B383FE01FF96608171818281938138
:101FD00020E030E040E85FE30E94250488232CF4F1
:101FE00081E090E09EAF8DAF46C0FE01FF9660811C
:101FF00071818281938120E03FEF4FE757E40E9497
:10200000C503181664F5FE01ED5BFF4F6081718119
:102010008281938120E030E040E251E40E941F027F
:10202000DC01CB01BC01CD010E944900DC01CB01E8
:102030009EAF8DAF0FC080E991E09CAF8BAF8BADB1
:102040009CAD0197F1F79CAF8BAF8DAD9EAD019725
:102050009EAF8DAF8DAD9EAD009769F716C0FE01A6
:10206000FF9660817181828193810E944900DC0129
:10207000CB019EAF8DAF8DAD9EAD9AAF89AF89ADCF
:102080009AAD0197F1F79AAF89AF80E062E040E046
:102090000E94E81480E090E0A0E8BFE38DAB9EAB27
:1020A000AFABB8AF6DA97EA98FA998AD20E030E0A5
:1020B0004AE755E40E941F02DC01CB0189AB9AABD1
:1020C000ABABBCAB69A97AA98BA99CA920E030E095
:1020D00040E85FE30E94250488232CF481E090E02F
:1020E00098AB8FA73FC069A97AA98BA99CA920E0CA
:1020F0003FEF4FE757E40E94C50318164CF56DA952
:102100007EA98FA998AD20E030E040E251E40E9422
:102110001F02DC01CB01BC01CD010E944900DC01A2
:10212000CB0198AB8FA70FC080E991E09EA78DA748
:102130008DA59EA50197F1F79EA78DA78FA598A9BC
:10214000019798AB8FA78FA598A9009769F714C03E
:1021500069A97AA98BA99CA90E944900DC01CB013D
:1021600098AB8FA78FA598A99CA78BA78BA59CA59B
:102170000197F1F79CA78BA780E062E041E00E9405
:10218000E81480E090E0A0E8BFE38FA398A7A9A798
:10219000BAA76FA178A589A59AA520E030E04AE703
:1021A00055E40E941F02DC01CB018BA39CA3ADA3CD
:1021B000BEA36BA17CA18DA19EA120E030E040E8F0
:1021C0005FE30E94250488232CF481E090E09AA329
:1021D00089A33FC06BA17CA18DA19EA120E03FEF10
:1021E0004FE757E40E94C50318164CF56FA178A578
:1021F00089A59AA520E030E040E251E40E941F0248
:10220000DC01CB01BC01CD010E944900DC01CB0106
:102210009AA389A30FC080E991E098A38F8F8F8D37
:1022200098A10197F1F798A38F8F89A19AA101979F
:102230009AA389A389A19AA1009769F714C06BA1F9
:102240007CA18DA19EA10E944900DC01CB019AA333
:1022500089A389A19AA19E8F8D8F8D8D9E8D0197C7
:10226000F1F79E8F8D8FFE01ED59FF4F8081982FE2
:10227000917080E063E0492F0E94E814FE01ED595F
:10228000FF4F8081882F90E08270907095958795A0
:10229000982F80E064E0492F0E94E814FE01ED5978
:1022A000FF4F8081882F90E084709070959587957E
:1022B00095958795982F80E065E0492F0E94E81456
:1022C000FE01ED59FF4F8081882F90E0887090705B
:1022D000959587959595879595958795982F80E005
:1022E00066E0492F0E94E81480E090E0A0E8BFE398
:1022F000898F9A8FAB8FBC8F698D7A8D8B8D9C8DDA
:1023000020E030E04AE755E40E941F02DC01CB01E7
:102310008D8B9E8BAF8BB88F6D897E898F89988DC1
:1023200020E030E040E85FE30E94250488232CF49D
:1023300081E090E09C8B8B8B3FC06D897E898F897B
:10234000988D20E03FEF4FE757E40E94C503181631
:102350004CF5698D7A8D8B8D9C8D20E030E040E2CC
:1023600051E40E941F02DC01CB01BC01CD010E949F
:102370004900DC01CB019C8B8B8B0FC080E991E085
:102380009A8B898B89899A890197F1F79A8B898B26
:102390008B899C8901979C8B8B8B8B899C8900975F
:1023A00069F714C06D897E898F89988D0E944900D4
:1023B000DC01CB019C8B8B8B8B899C89988B8F87C5
:1023C0008F8598890197F1F7988B8F8780E062E07D
:1023D00040E00E94E81480E090E0A0E8BFE38B8733
:1023E0009C87AD87BE876B857C858D859E8520E02B
:1023F00030E04AE755E40E941F02DC01CB018F83E5
:102400009887A987BA876F81788589859A8520E022
:1024100030E040E85FE30E94250488232CF481E04B
:1024200090E09E838D833FC06F81788589859A85F2
:1024300020E03FEF4FE757E40E94C50318164CF524
:102440006B857C858D859E8520E030E040E251E4FF
:102450000E941F02DC01CB01BC01CD010E9449009A
:10246000DC01CB019E838D830FC080E991E09C83CA
:102470008B838B819C810197F1F79C838B838D816A
:102480009E8101979E838D838D819E81009769F740
:1024900014C06F81788589859A850E944900DC0186
:1024A000CB019E838D838D819E819A8389838981CF
:1024B0009A810197F1F79A838983CD59DF4F0FB63F
:1024C000F894DEBF0FBECDBFCF91DF911F910F916A
:1024D0000895DF93CF9300D00F92CDB7DEB79B83E3
:1024E0008A8319820EC08981282F30E08A819B81DE
:1024F000FC01E20FF31F80810E94EE0D89818F5F46
:1025000089838981282F30E08A819B81FC01E20F39
:10251000F31F8081882339F70F900F900F90CF9190
:10252000DF910895DF93CF9300D000D00F92CDB705
:10253000DEB78A836B838A81282F30E03D832C832A
:102540008C819D8181309105C1F02C813D812230AB
:1025500031052CF48C819D81009761F019C02C818C
:102560003D812230310569F08C819D818330910558
:1025700061F00EC08B8189830BC08B81805C898365
:1025800007C08B81805F898303C08B81805B8983D7
:10259000898180680E9473090F900F900F900F90AF
:1025A0000F90CF91DF910895DF93CF9300D000D0AB
:1025B000CDB7DEB789836A835C834B8389816A8167
:1025C0000E9492128B819C810E9469120F900F9041
:1025D0000F900F90CF91DF910895DF93CF93CDB7F8
:1025E000DEB762970FB6F894DEBF0FBECDBF9A8BF1
:1025F000898B89899A899E012F5F3F4FB9014AE0F3
:1026000050E00E946319CE0101960E946912629601
:102610000FB6F894DEBF0FBECDBFCF91DF91089506
:10262000DF93CF93CDB7DEB781E00E947309CF91DE
:10263000DF9108951F920F920FB60F9211242F93DE
:102640003F934F935F936F937F938F939F93AF933A
:10265000BF93EF93FF93DF93CF93CDB7DEB7809116
:10266000910190919201009729F0E0919101F091F0
:1026700092010995CF91DF91FF91EF91BF91AF91B9
:102680009F918F917F916F915F914F913F912F918A
:102690000F900FBE0F901F901895DF93CF9300D02F
:1026A000CDB7DEB79A838983A1E3B0E0E1E3F0E040
:1026B00080818F7B8C93EFE4F0E08CE08083AEE44C
:1026C000B0E0EEE4F0E08081982F987FE981FA8114
:1026D0008081892B8C93AEE4B0E0EEE4F0E0808161
:1026E000282F2F7BE981FA818181882F90E00024B7
:1026F000969587950794969587950794982F802DA2
:10270000822B8C93ECE4F0E011821082E6E4F0E09E
:1027100011821082A9E5B0E0E9E5F0E080818062F5
:102720008C930F900F90CF91DF910895DF93CF930B
:1027300000D0CDB7DEB79A83898389819A8190933F
:102740009201809391010F900F90CF91DF910895A6
:10275000DF93CF930F92CDB7DEB78983AEE4B0E0BD
:10276000EEE4F0E08081282F2F7B8981882F90E094
:102770000024969587950794969587950794982FAA
:10278000802D822B8C930F90CF91DF910895DF9352
:10279000CF93CDB7DEB7E6E4F0E080819181CF91B1
:1027A000DF910895DF93CF93CDB7DEB7ECE4F0E08F
:1027B00011821082CF91DF910895DF93CF93CDB72F
:1027C000DEB7EFE4F0E01082EEE4F0E01082ECE43B
:1027D000F0E011821082E6E4F0E011821082A9E5B7
:1027E000B0E0E9E5F0E080818F7D8C93109292015A
:1027F00010929101CF91DF910895DF93CF9300D094
:1028000000D00F92CDB7DEB789836A834B838A816C
:10281000883008F0D5C08981843008F0D1C0898122
:10282000282F30E03D832C838C819D818130910560
:1028300009F443C02C813D81223031052CF48C8178
:102840009D81009771F0BCC02C813D812230310503
:1028500009F45FC08C819D818330910509F485C0A6
:10286000AFC08B818130A1F4AAE3B0E0EAE3F0E0ED
:102870008081482F8A81282F30E081E090E0022E6D
:1028800002C0880F991F0A94E2F7842B8C9398C09A
:10289000AAE3B0E0EAE3F0E08081482F8A81282FA4
:1028A00030E081E090E0022E02C0880F991F0A9468
:1028B000E2F7809584238C9383C08B818130A1F4CF
:1028C000A7E3B0E0E7E3F0E08081482F8A81282F7A
:1028D00030E081E090E0022E02C0880F991F0A9438
:1028E000E2F7842B8C936CC0A7E3B0E0E7E3F0E061
:1028F0008081482F8A81282F30E081E090E0022EED
:1029000002C0880F991F0A94E2F7809584238C9364
:1029100057C08B818130A1F4A4E3B0E0E4E3F0E0A0
:102920008081482F8A81282F30E081E090E0022EBC
:1029300002C0880F991F0A94E2F7842B8C9340C041
:10294000A4E3B0E0E4E3F0E08081482F8A81282FFF
:1029500030E081E090E0022E02C0880F991F0A94B7
:10296000E2F7809584238C932BC08B818130A1F476
:10297000A1E3B0E0E1E3F0E08081482F8A81282FD5
:1029800030E081E090E0022E02C0880F991F0A9487
:10299000E2F7842B8C9314C0A1E3B0E0E1E3F0E014
:1029A0008081482F8A81282F30E081E090E0022E3C
:1029B00002C0880F991F0A94E2F7809584238C93B4
:1029C0000F900F900F900F900F90CF91DF9108957F
:1029D000DF93CF9300D000D00F92CDB7DEB78983BD
:1029E0006A834B838A81883008F0D5C0898184301E
:1029F00008F0D1C08981282F30E03D832C838C8161
:102A00009D818130910509F443C02C813D812230A4
:102A100031052CF48C819D81009771F0BCC02C8114
:102A20003D812230310509F45FC08C819D81833066
:102A3000910509F485C0AFC08B818130A1F4ABE36F
:102A4000B0E0EBE3F0E08081482F8A81282F30E06E
:102A500081E090E0022E02C0880F991F0A94E2F7ED
:102A6000842B8C9398C0ABE3B0E0EBE3F0E0808183
:102A7000482F8A81282F30E081E090E0022E02C0AA
:102A8000880F991F0A94E2F7809584238C9383C062
:102A90008B818130A1F4A8E3B0E0E8E3F0E080812D
:102AA000482F8A81282F30E081E090E0022E02C07A
:102AB000880F991F0A94E2F7842B8C936CC0A8E3CB
:102AC000B0E0E8E3F0E08081482F8A81282F30E0F1
:102AD00081E090E0022E02C0880F991F0A94E2F76D
:102AE000809584238C9357C08B818130A1F4A5E31A
:102AF000B0E0E5E3F0E08081482F8A81282F30E0C4
:102B000081E090E0022E02C0880F991F0A94E2F73C
:102B1000842B8C9340C0A5E3B0E0E5E3F0E0808136
:102B2000482F8A81282F30E081E090E0022E02C0F9
:102B3000880F991F0A94E2F7809584238C932BC009
:102B40008B818130A1F4A2E3B0E0E2E3F0E0808188
:102B5000482F8A81282F30E081E090E0022E02C0C9
:102B6000880F991F0A94E2F7842B8C9314C0A2E378
:102B7000B0E0E2E3F0E08081482F8A81282F30E046
:102B800081E090E0022E02C0880F991F0A94E2F7BC
:102B9000809584238C930F900F900F900F900F903F
:102BA000CF91DF910895DF93CF9300D000D00F92A3
:102BB000CDB7DEB78A836B8319828B81883008F0AA
:102BC00084C08A81843008F080C08A81282F30E058
:102BD0003D832C834C815D814130510579F18C819D
:102BE0009D818230910534F42C813D812115310580
:102BF00069F06BC04C815D8142305105B9F18C8127
:102C00009D818330910509F449C05FC0E9E3F0E09C
:102C10008081282F30E08B81882F90E0A90102C0AD
:102C2000559547958A95E2F7CA018170907088237F
:102C300019F081E0898349C0198247C0E6E3F0E0DA
:102C40008081282F30E08B81882F90E0A90102C07D
:102C5000559547958A95E2F7CA018170907088234F
:102C600019F081E0898331C019822FC0E3E3F0E0DD
:102C70008081282F30E08B81882F90E0A90102C04D
:102C8000559547958A95E2F7CA018170907088231F
:102C900019F081E0898319C0198217C0E0E3F0E0E0
:102CA0008081282F30E08B81882F90E0A90102C01D
:102CB000559547958A95E2F7CA01817090708823EF
:102CC00019F081E0898301C0198289810F900F90EA
:102CD0000F900F900F90CF91DF910895DF93CF93D6
:102CE00000D000D0CDB7DEB789836A838981843074
:102CF00090F58981282F30E03C832B838B819C8148
:102D000081309105D1F02B813C81223031052CF4AA
:102D10008B819C81009761F01EC02B813C81223009
:102D2000310581F08B819C818330910581F013C046
:102D3000EAE3F0E08A8180830EC0E7E3F0E08A8175
:102D4000808309C0E4E3F0E08A81808304C0E1E38A
:102D5000F0E08A8180830F900F900F900F90CF91B9
:102D6000DF910895DF93CF9300D000D0CDB7DEB7C9
:102D700089836A838981843090F58981282F30E0A6
:102D80003C832B838B819C8181309105D1F02B81F9
:102D90003C81223031052CF48B819C81009761F0BD
:102DA0001EC02B813C812230310581F08B819C81BA
:102DB0008330910581F013C0EBE3F0E08A818083DA
:102DC0000EC0E8E3F0E08A81808309C0E5E3F0E02B
:102DD0008A81808304C0E2E3F0E08A8180830F90DF
:102DE0000F900F900F90CF91DF910895DF93CF93C5
:102DF00000D000D0CDB7DEB78A8319828A818430B3
:102E000090F58A81282F30E03C832B838B819C8135
:102E100081309105D1F02B813C81223031052CF499
:102E20008B819C81009761F01EC02B813C812230F8
:102E3000310581F08B819C818330910581F013C035
:102E4000E9E3F0E0808189830EC0E6E3F0E0808171
:102E5000898309C0E3E3F0E08081898304C0E0E373
:102E6000F0E08081898389810F900F900F900F90FF
:102E7000CF91DF910895DF93CF93CDB7DEB782E096
:102E800065E041E00E94FD1382E065E040E00E94C1
:102E9000E814CF91DF910895DF93CF93CDB7DEB7DC
:102EA00082E065E041E00E94E814CF91DF9108954F
:102EB000DF93CF93CDB7DEB782E065E040E00E94BC
:102EC000E814CF91DF910895DF93CF93CDB7DEB7AC
:102ED0006E970FB6F894DEBF0FBECDBFAFE5B0E082
:102EE000EFE5F0E0808180688C930E94C1080E9429
:102EF00017070E9484080E943B170E9412089E8FA9
:102F00008D8F20E630E080E060E0A9010E94D412BD
:102F10008D8D9E8D8436910548F08D8D9E8D0E94FD
:102F2000ED128BE690E00E94691216C08D8D9E8D89
:102F30008A30910548F08D8D9E8D0E94ED128EE6AF
:102F400090E00E94691208C08D8D9E8D0E94ED1246
:102F500082E790E00E9469128D8D9E8D86309105EA
:102F600008F003C127E730E081E066E0A9010E9494
:102F7000D41280E00E94A30881E00E94A30882E0AE
:102F80000E94A3080E944C1781E08093930180E087
:102F900090E0AAEFB3E4898F9A8FAB8FBC8F698DD5
:102FA0007A8D8B8D9C8D20E030E04AE755E40E94BD
:102FB0001F02DC01CB018D8B9E8BAF8BB88F6D898F
:102FC0007E898F89988D20E030E040E85FE30E94A1
:102FD000250488232CF481E090E09C8B8B8B3FC0F0
:102FE0006D897E898F89988D20E03FEF4FE757E408
:102FF0000E94C50318164CF5698D7A8D8B8D9C8DBA
:1030000020E030E040E251E40E941F02DC01CB01ED
:10301000BC01CD010E944900DC01CB019C8B8B8B54
:103020000FC080E991E09A8B898B89899A890197F1
:10303000F1F79A8B898B8B899C8901979C8B8B8B61
:103040008B899C89009769F714C06D897E898F8967
:10305000988D0E944900DC01CB019C8B8B8B8B8966
:103060009C89988B8F878F8598890197F1F7988B2A
:103070008F8780E00E94B20881E00E94B20882E05F
:103080000E94B20880E090E0AAEFB3E48B879C87AF
:10309000AD87BE876B857C858D859E8520E030E081
:1030A0004AE755E40E941F02DC01CB018F83988719
:1030B000A987BA876F81788589859A8520E030E075
:1030C00040E85FE30E94250488232CF481E090E02F
:1030D0009E838D833FC06F81788589859A8520E0A6
:1030E0003FEF4FE757E40E94C50318164CF56B8578
:1030F0007C858D859E8520E030E040E251E40E9491
:103100001F02DC01CB01BC01CD010E944900DC01A2
:10311000CB019E838D830FC080E991E09C838B83DC
:103120008B819C810197F1F79C838B838D819E819C
:1031300001979E838D838D819E81009769F7DDCEF7
:103140006F81788589859A850E944900DC01CB01D1
:103150009E838D838D819E819A83898389819A81C3
:103160000197F1F79A838983C8CE8D8D9E8D8B3020
:103170009105D0F42DE730E081E066E0A9010E94DE
:10318000D41280E00E94A30881E00E94A30882E09C
:103190000E94A30880919301813009F0AECE0E9475
:1031A000581710929301A9CE8D8D9E8D8031910577
:1031B000D0F42DE730E081E066E0A9010E94D4124E
:1031C00080E00E94A30881E00E94A30882E00E94A0
:1031D000B20880919301813009F08FCE0E94581778
:1031E000109293018ACE8D8D9E8D85319105D0F4FC
:1031F0002DE730E081E066E0A9010E94D41280E072
:103200000E94A30881E00E94B20882E00E94B208F6
:1032100080919301813009F070CE0E94581710926E
:1032200093016BCE2DE730E081E066E0A9010E94BA
:10323000D41280E00E94B20881E00E94B20882E0CD
:103240000E94B20880919301813009F056CE0E940D
:1032500058171092930151CE2F923F924F925F9246
:103260006F927F928F929F92AF92BF92CF92DF9296
:10327000EF92FF920F931F93CF93DF93CDB7DEB7FB
:10328000CA1BDB0B0FB6F894DEBF0FBECDBF09948F
:103290002A88398848885F846E847D848C849B84E6
:1032A000AA84B984C884DF80EE80FD800C811B81F4
:1032B000AA81B981CE0FD11D0FB6F894DEBF0FBE23
:1032C000CDBFED010895FB019F01E8944230C4F0A9
:1032D0004532B4F44A3029F497FB1EF49095819559
:1032E0009F4F642F77270E94101A805D8A330CF05D
:1032F000895D8193CB010097A1F716F45DE25193AC
:103300001082C9010C94DE193BD080F09F3740F445
:1033100091110EF44DC060E070E080E89FE30895E5
:1033200026F01B16611D711D811D01C01BC0882365
:1033300071F4772321F09850872B762F07C06623EE
:1033400011F499270DC09051862B70E060E02AF0AF
:103350009A95660F771F881FDAF7880F96958795DD
:1033600097F908959F3F31F0915020F48795779514
:103370006795B795880F911D9695879597F908954C
:1033800035D0A0F0BEE7B91788F4BB279F3860F4AA
:103390001616B11D672F782F8827985FF7CF86956F
:1033A00077956795B11D93959639C8F30895E8947C
:1033B000BB2766277727CB0197F90895DC01FC012D
:1033C000672F71917723E1F7329704C07C916D9359
:1033D00070836291AE17BF07C8F3089557FD9058E8
:1033E000440F551F59F05F3F71F04795880F97FBC9
:1033F000991F61F09F3F79F0879508951216130683
:103400001406551FF2CF4695F1DF08C016161706B1
:103410001806991FF1CF86957105610508940895E6
:10342000AA1BBB1B51E107C0AA1FBB1FA617B707EA
:1034300010F0A61BB70B881F991F5A95A9F7809506
:0C3440009095BC01CD010895F894FFCFD9
:10344C0044697374616E63653D2000636D00206395
:10345C006D002020636D0053544F5021002020201C
:10346C002020000000000000000000000102020308
:10347C0003030304040404040404040505050505FE
:10348C0005050505050505050505050606060606DB
:10349C0006060606060606060606060606060606C0
:1034AC0006060606060606060606060707070707AB
:1034BC000707070707070707070707070707070790
:1034CC000707070707070707070707070707070780
:1034DC000707070707070707070707070707070770
:1034EC00070707070707070707070708080808085B
:1034FC000808080808080808080808080808080840
:10350C00080808080808080808080808080808082F
:10351C00080808080808080808080808080808081F
:10352C00080808080808080808080808080808080F
:10353C0008080808080808080808080808080808FF
:10354C0008080808080808080808080808080808EF
:10355C0008080808080808080808080808080808DF
:0C356C00080808080808080808080800FB
:00000001FF
